{
    "_format": "hh-sol-artifact-1",
    "contractName": "SimpleNFT",
    "sourceName": "contracts/SimpleNFT.sol",
    "abi": [
        {
            "inputs": [],
            "stateMutability": "payable",
            "type": "constructor"
        },
        {
            "anonymous": false,
            "inputs": [
                {
                    "indexed": true,
                    "internalType": "address",
                    "name": "owner",
                    "type": "address"
                },
                {
                    "indexed": true,
                    "internalType": "address",
                    "name": "approved",
                    "type": "address"
                },
                {
                    "indexed": true,
                    "internalType": "uint256",
                    "name": "tokenId",
                    "type": "uint256"
                }
            ],
            "name": "Approval",
            "type": "event"
        },
        {
            "anonymous": false,
            "inputs": [
                {
                    "indexed": true,
                    "internalType": "address",
                    "name": "owner",
                    "type": "address"
                },
                {
                    "indexed": true,
                    "internalType": "address",
                    "name": "operator",
                    "type": "address"
                },
                {
                    "indexed": false,
                    "internalType": "bool",
                    "name": "approved",
                    "type": "bool"
                }
            ],
            "name": "ApprovalForAll",
            "type": "event"
        },
        {
            "anonymous": false,
            "inputs": [
                {
                    "indexed": true,
                    "internalType": "address",
                    "name": "previousOwner",
                    "type": "address"
                },
                {
                    "indexed": true,
                    "internalType": "address",
                    "name": "newOwner",
                    "type": "address"
                }
            ],
            "name": "OwnershipTransferred",
            "type": "event"
        },
        {
            "anonymous": false,
            "inputs": [
                {
                    "indexed": true,
                    "internalType": "address",
                    "name": "from",
                    "type": "address"
                },
                {
                    "indexed": true,
                    "internalType": "address",
                    "name": "to",
                    "type": "address"
                },
                {
                    "indexed": true,
                    "internalType": "uint256",
                    "name": "tokenId",
                    "type": "uint256"
                }
            ],
            "name": "Transfer",
            "type": "event"
        },
        {
            "inputs": [
                {
                    "internalType": "address",
                    "name": "to",
                    "type": "address"
                },
                {
                    "internalType": "uint256",
                    "name": "tokenId",
                    "type": "uint256"
                }
            ],
            "name": "approve",
            "outputs": [],
            "stateMutability": "nonpayable",
            "type": "function"
        },
        {
            "inputs": [
                {
                    "internalType": "address",
                    "name": "owner",
                    "type": "address"
                }
            ],
            "name": "balanceOf",
            "outputs": [
                {
                    "internalType": "uint256",
                    "name": "",
                    "type": "uint256"
                }
            ],
            "stateMutability": "view",
            "type": "function"
        },
        {
            "inputs": [
                {
                    "internalType": "uint256",
                    "name": "tokenId",
                    "type": "uint256"
                }
            ],
            "name": "getApproved",
            "outputs": [
                {
                    "internalType": "address",
                    "name": "",
                    "type": "address"
                }
            ],
            "stateMutability": "view",
            "type": "function"
        },
        {
            "inputs": [
                {
                    "internalType": "address",
                    "name": "owner",
                    "type": "address"
                },
                {
                    "internalType": "address",
                    "name": "operator",
                    "type": "address"
                }
            ],
            "name": "isApprovedForAll",
            "outputs": [
                {
                    "internalType": "bool",
                    "name": "",
                    "type": "bool"
                }
            ],
            "stateMutability": "view",
            "type": "function"
        },
        {
            "inputs": [],
            "name": "isPublicMintEnabled",
            "outputs": [
                {
                    "internalType": "bool",
                    "name": "",
                    "type": "bool"
                }
            ],
            "stateMutability": "view",
            "type": "function"
        },
        {
            "inputs": [],
            "name": "maxPerWallet",
            "outputs": [
                {
                    "internalType": "uint256",
                    "name": "",
                    "type": "uint256"
                }
            ],
            "stateMutability": "view",
            "type": "function"
        },
        {
            "inputs": [],
            "name": "maxSupply",
            "outputs": [
                {
                    "internalType": "uint256",
                    "name": "",
                    "type": "uint256"
                }
            ],
            "stateMutability": "view",
            "type": "function"
        },
        {
            "inputs": [
                {
                    "internalType": "uint256",
                    "name": "quantity_",
                    "type": "uint256"
                }
            ],
            "name": "mint",
            "outputs": [],
            "stateMutability": "payable",
            "type": "function"
        },
        {
            "inputs": [],
            "name": "mintPrice",
            "outputs": [
                {
                    "internalType": "uint256",
                    "name": "",
                    "type": "uint256"
                }
            ],
            "stateMutability": "view",
            "type": "function"
        },
        {
            "inputs": [],
            "name": "name",
            "outputs": [
                {
                    "internalType": "string",
                    "name": "",
                    "type": "string"
                }
            ],
            "stateMutability": "view",
            "type": "function"
        },
        {
            "inputs": [],
            "name": "owner",
            "outputs": [
                {
                    "internalType": "address",
                    "name": "",
                    "type": "address"
                }
            ],
            "stateMutability": "view",
            "type": "function"
        },
        {
            "inputs": [
                {
                    "internalType": "uint256",
                    "name": "tokenId",
                    "type": "uint256"
                }
            ],
            "name": "ownerOf",
            "outputs": [
                {
                    "internalType": "address",
                    "name": "",
                    "type": "address"
                }
            ],
            "stateMutability": "view",
            "type": "function"
        },
        {
            "inputs": [],
            "name": "renounceOwnership",
            "outputs": [],
            "stateMutability": "nonpayable",
            "type": "function"
        },
        {
            "inputs": [
                {
                    "internalType": "address",
                    "name": "from",
                    "type": "address"
                },
                {
                    "internalType": "address",
                    "name": "to",
                    "type": "address"
                },
                {
                    "internalType": "uint256",
                    "name": "tokenId",
                    "type": "uint256"
                }
            ],
            "name": "safeTransferFrom",
            "outputs": [],
            "stateMutability": "nonpayable",
            "type": "function"
        },
        {
            "inputs": [
                {
                    "internalType": "address",
                    "name": "from",
                    "type": "address"
                },
                {
                    "internalType": "address",
                    "name": "to",
                    "type": "address"
                },
                {
                    "internalType": "uint256",
                    "name": "tokenId",
                    "type": "uint256"
                },
                {
                    "internalType": "bytes",
                    "name": "data",
                    "type": "bytes"
                }
            ],
            "name": "safeTransferFrom",
            "outputs": [],
            "stateMutability": "nonpayable",
            "type": "function"
        },
        {
            "inputs": [
                {
                    "internalType": "address",
                    "name": "operator",
                    "type": "address"
                },
                {
                    "internalType": "bool",
                    "name": "approved",
                    "type": "bool"
                }
            ],
            "name": "setApprovalForAll",
            "outputs": [],
            "stateMutability": "nonpayable",
            "type": "function"
        },
        {
            "inputs": [
                {
                    "internalType": "string",
                    "name": "baseTokenUri_",
                    "type": "string"
                }
            ],
            "name": "setBaseTokenUri",
            "outputs": [],
            "stateMutability": "nonpayable",
            "type": "function"
        },
        {
            "inputs": [
                {
                    "internalType": "bool",
                    "name": "isPublicMintEnabled_",
                    "type": "bool"
                }
            ],
            "name": "setIsPublicMintEnabled",
            "outputs": [],
            "stateMutability": "nonpayable",
            "type": "function"
        },
        {
            "inputs": [
                {
                    "internalType": "bytes4",
                    "name": "interfaceId",
                    "type": "bytes4"
                }
            ],
            "name": "supportsInterface",
            "outputs": [
                {
                    "internalType": "bool",
                    "name": "",
                    "type": "bool"
                }
            ],
            "stateMutability": "view",
            "type": "function"
        },
        {
            "inputs": [],
            "name": "symbol",
            "outputs": [
                {
                    "internalType": "string",
                    "name": "",
                    "type": "string"
                }
            ],
            "stateMutability": "view",
            "type": "function"
        },
        {
            "inputs": [
                {
                    "internalType": "uint256",
                    "name": "tokenId_",
                    "type": "uint256"
                }
            ],
            "name": "tokenURI",
            "outputs": [
                {
                    "internalType": "string",
                    "name": "",
                    "type": "string"
                }
            ],
            "stateMutability": "view",
            "type": "function"
        },
        {
            "inputs": [],
            "name": "totalSupply",
            "outputs": [
                {
                    "internalType": "uint256",
                    "name": "",
                    "type": "uint256"
                }
            ],
            "stateMutability": "view",
            "type": "function"
        },
        {
            "inputs": [
                {
                    "internalType": "address",
                    "name": "from",
                    "type": "address"
                },
                {
                    "internalType": "address",
                    "name": "to",
                    "type": "address"
                },
                {
                    "internalType": "uint256",
                    "name": "tokenId",
                    "type": "uint256"
                }
            ],
            "name": "transferFrom",
            "outputs": [],
            "stateMutability": "nonpayable",
            "type": "function"
        },
        {
            "inputs": [
                {
                    "internalType": "address",
                    "name": "newOwner",
                    "type": "address"
                }
            ],
            "name": "transferOwnership",
            "outputs": [],
            "stateMutability": "nonpayable",
            "type": "function"
        },
        {
            "inputs": [
                {
                    "internalType": "address",
                    "name": "",
                    "type": "address"
                }
            ],
            "name": "walletMints",
            "outputs": [
                {
                    "internalType": "uint256",
                    "name": "",
                    "type": "uint256"
                }
            ],
            "stateMutability": "view",
            "type": "function"
        },
        {
            "inputs": [],
            "name": "withdraw",
            "outputs": [],
            "stateMutability": "nonpayable",
            "type": "function"
        },
        {
            "inputs": [],
            "name": "withdrawWallet",
            "outputs": [
                {
                    "internalType": "address payable",
                    "name": "",
                    "type": "address"
                }
            ],
            "stateMutability": "view",
            "type": "function"
        }
    ],
    "bytecode": "0x60806040526040518060400160405280600981526020017f53696d706c654e465400000000000000000000000000000000000000000000008152506040518060400160405280600481526020017f534e46540000000000000000000000000000000000000000000000000000000081525081600090816200008191906200042b565b5080600190816200009391906200042b565b505050620000b6620000aa620000e360201b60201c565b620000eb60201b60201c565b66470de4df82000060078190555060006008819055506103e86009819055506003600a8190555062000512565b600033905090565b6000600660009054906101000a900473ffffffffffffffffffffffffffffffffffffffff16905081600660006101000a81548173ffffffffffffffffffffffffffffffffffffffff021916908373ffffffffffffffffffffffffffffffffffffffff1602179055508173ffffffffffffffffffffffffffffffffffffffff168173ffffffffffffffffffffffffffffffffffffffff167f8be0079c531659141344cd1fd0a4f28419497f9722a3daafe3b4186f6b6457e060405160405180910390a35050565b600081519050919050565b7f4e487b7100000000000000000000000000000000000000000000000000000000600052604160045260246000fd5b7f4e487b7100000000000000000000000000000000000000000000000000000000600052602260045260246000fd5b600060028204905060018216806200023357607f821691505b602082108103620002495762000248620001eb565b5b50919050565b60008190508160005260206000209050919050565b60006020601f8301049050919050565b600082821b905092915050565b600060088302620002b37fffffffffffffffffffffffffffffffffffffffffffffffffffffffffffffffff8262000274565b620002bf868362000274565b95508019841693508086168417925050509392505050565b6000819050919050565b6000819050919050565b60006200030c620003066200030084620002d7565b620002e1565b620002d7565b9050919050565b6000819050919050565b6200032883620002eb565b62000340620003378262000313565b84845462000281565b825550505050565b600090565b6200035762000348565b620003648184846200031d565b505050565b5b818110156200038c57620003806000826200034d565b6001810190506200036a565b5050565b601f821115620003db57620003a5816200024f565b620003b08462000264565b81016020851015620003c0578190505b620003d8620003cf8562000264565b83018262000369565b50505b505050565b600082821c905092915050565b60006200040060001984600802620003e0565b1980831691505092915050565b60006200041b8383620003ed565b9150826002028217905092915050565b6200043682620001b1565b67ffffffffffffffff811115620004525762000451620001bc565b5b6200045e82546200021a565b6200046b82828562000390565b600060209050601f831160018114620004a357600084156200048e578287015190505b6200049a85826200040d565b8655506200050a565b601f198416620004b3866200024f565b60005b82811015620004dd57848901518255600182019150602085019450602081019050620004b6565b86831015620004fd5784890151620004f9601f891682620003ed565b8355505b6001600288020188555050505b505050505050565b61381480620005226000396000f3fe60806040526004361061019c5760003560e01c806370a08231116100ec578063a22cb4651161008a578063d5abeb0111610064578063d5abeb0114610593578063e985e9c5146105be578063f0293fd3146105fb578063f2fde38b146106385761019c565b8063a22cb46514610504578063b88d4fde1461052d578063c87b56dd146105565761019c565b80638da5cb5b116100c65780638da5cb5b1461046957806395652cfa1461049457806395d89b41146104bd578063a0712d68146104e85761019c565b806370a08231146103ea578063715018a61461042757806385d178f41461043e5761019c565b80632373ac221161015957806342842e0e1161013357806342842e0e1461032e578063453c2310146103575780636352211e146103825780636817c76c146103bf5761019c565b80632373ac22146102c557806323b872dd146102ee5780633ccfd60b146103175761019c565b80630116bc2d146101a157806301ffc9a7146101cc57806306fdde0314610209578063081812fc14610234578063095ea7b31461027157806318160ddd1461029a575b600080fd5b3480156101ad57600080fd5b506101b6610661565b6040516101c3919061215b565b60405180910390f35b3480156101d857600080fd5b506101f360048036038101906101ee91906121e2565b610674565b604051610200919061215b565b60405180910390f35b34801561021557600080fd5b5061021e610756565b60405161022b919061229f565b60405180910390f35b34801561024057600080fd5b5061025b600480360381019061025691906122f7565b6107e8565b6040516102689190612365565b60405180910390f35b34801561027d57600080fd5b50610298600480360381019061029391906123ac565b61082e565b005b3480156102a657600080fd5b506102af610945565b6040516102bc91906123fb565b60405180910390f35b3480156102d157600080fd5b506102ec60048036038101906102e79190612442565b61094b565b005b3480156102fa57600080fd5b506103156004803603810190610310919061246f565b610970565b005b34801561032357600080fd5b5061032c6109d0565b005b34801561033a57600080fd5b506103556004803603810190610350919061246f565b610aa9565b005b34801561036357600080fd5b5061036c610ac9565b60405161037991906123fb565b60405180910390f35b34801561038e57600080fd5b506103a960048036038101906103a491906122f7565b610acf565b6040516103b69190612365565b60405180910390f35b3480156103cb57600080fd5b506103d4610b55565b6040516103e191906123fb565b60405180910390f35b3480156103f657600080fd5b50610411600480360381019061040c91906124c2565b610b5b565b60405161041e91906123fb565b60405180910390f35b34801561043357600080fd5b5061043c610c12565b005b34801561044a57600080fd5b50610453610c26565b6040516104609190612510565b60405180910390f35b34801561047557600080fd5b5061047e610c4c565b60405161048b9190612365565b60405180910390f35b3480156104a057600080fd5b506104bb60048036038101906104b69190612590565b610c76565b005b3480156104c957600080fd5b506104d2610c94565b6040516104df919061229f565b60405180910390f35b61050260048036038101906104fd91906122f7565b610d26565b005b34801561051057600080fd5b5061052b600480360381019061052691906125dd565b610efc565b005b34801561053957600080fd5b50610554600480360381019061054f919061274d565b610f12565b005b34801561056257600080fd5b5061057d600480360381019061057891906122f7565b610f74565b60405161058a919061229f565b60405180910390f35b34801561059f57600080fd5b506105a8610ff0565b6040516105b591906123fb565b60405180910390f35b3480156105ca57600080fd5b506105e560048036038101906105e091906127d0565b610ff6565b6040516105f2919061215b565b60405180910390f35b34801561060757600080fd5b50610622600480360381019061061d91906124c2565b61108a565b60405161062f91906123fb565b60405180910390f35b34801561064457600080fd5b5061065f600480360381019061065a91906124c2565b6110a2565b005b600b60009054906101000a900460ff1681565b60007f80ac58cd000000000000000000000000000000000000000000000000000000007bffffffffffffffffffffffffffffffffffffffffffffffffffffffff1916827bffffffffffffffffffffffffffffffffffffffffffffffffffffffff1916148061073f57507f5b5e139f000000000000000000000000000000000000000000000000000000007bffffffffffffffffffffffffffffffffffffffffffffffffffffffff1916827bffffffffffffffffffffffffffffffffffffffffffffffffffffffff1916145b8061074f575061074e82611125565b5b9050919050565b6060600080546107659061283f565b80601f01602080910402602001604051908101604052809291908181526020018280546107919061283f565b80156107de5780601f106107b3576101008083540402835291602001916107de565b820191906000526020600020905b8154815290600101906020018083116107c157829003601f168201915b5050505050905090565b60006107f38261118f565b6004600083815260200190815260200160002060009054906101000a900473ffffffffffffffffffffffffffffffffffffffff169050919050565b600061083982610acf565b90508073ffffffffffffffffffffffffffffffffffffffff168373ffffffffffffffffffffffffffffffffffffffff16036108a9576040517f08c379a00000000000000000000000000000000000000000000000000000000081526004016108a0906128e2565b60405180910390fd5b8073ffffffffffffffffffffffffffffffffffffffff166108c86111da565b73ffffffffffffffffffffffffffffffffffffffff1614806108f757506108f6816108f16111da565b610ff6565b5b610936576040517f08c379a000000000000000000000000000000000000000000000000000000000815260040161092d90612974565b60405180910390fd5b61094083836111e2565b505050565b60085481565b61095361129b565b80600b60006101000a81548160ff02191690831515021790555050565b61098161097b6111da565b82611319565b6109c0576040517f08c379a00000000000000000000000000000000000000000000000000000000081526004016109b790612a06565b60405180910390fd5b6109cb8383836113ae565b505050565b6109d861129b565b6000600d60009054906101000a900473ffffffffffffffffffffffffffffffffffffffff1673ffffffffffffffffffffffffffffffffffffffff1647604051610a2090612a57565b60006040518083038185875af1925050503d8060008114610a5d576040519150601f19603f3d011682016040523d82523d6000602084013e610a62565b606091505b5050905080610aa6576040517f08c379a0000000000000000000000000000000000000000000000000000000008152600401610a9d90612ab8565b60405180910390fd5b50565b610ac483838360405180602001604052806000815250610f12565b505050565b600a5481565b600080610adb836116a7565b9050600073ffffffffffffffffffffffffffffffffffffffff168173ffffffffffffffffffffffffffffffffffffffff1603610b4c576040517f08c379a0000000000000000000000000000000000000000000000000000000008152600401610b4390612b24565b60405180910390fd5b80915050919050565b60075481565b60008073ffffffffffffffffffffffffffffffffffffffff168273ffffffffffffffffffffffffffffffffffffffff1603610bcb576040517f08c379a0000000000000000000000000000000000000000000000000000000008152600401610bc290612bb6565b60405180910390fd5b600360008373ffffffffffffffffffffffffffffffffffffffff1673ffffffffffffffffffffffffffffffffffffffff168152602001908152602001600020549050919050565b610c1a61129b565b610c2460006116e4565b565b600d60009054906101000a900473ffffffffffffffffffffffffffffffffffffffff1681565b6000600660009054906101000a900473ffffffffffffffffffffffffffffffffffffffff16905090565b610c7e61129b565b8181600c9182610c8f929190612d8d565b505050565b606060018054610ca39061283f565b80601f0160208091040260200160405190810160405280929190818152602001828054610ccf9061283f565b8015610d1c5780601f10610cf157610100808354040283529160200191610d1c565b820191906000526020600020905b815481529060010190602001808311610cff57829003601f168201915b5050505050905090565b600b60009054906101000a900460ff16610d75576040517f08c379a0000000000000000000000000000000000000000000000000000000008152600401610d6c90612ea9565b60405180910390fd5b60075481610d839190612ef8565b3414610dc4576040517f08c379a0000000000000000000000000000000000000000000000000000000008152600401610dbb90612f86565b60405180910390fd5b60095481600854610dd59190612ef8565b1115610e16576040517f08c379a0000000000000000000000000000000000000000000000000000000008152600401610e0d90612ff2565b60405180910390fd5b600a5481600e60003373ffffffffffffffffffffffffffffffffffffffff1673ffffffffffffffffffffffffffffffffffffffff16815260200190815260200160002054610e649190613012565b1115610ea5576040517f08c379a0000000000000000000000000000000000000000000000000000000008152600401610e9c90613092565b60405180910390fd5b60005b81811015610ef857600081600854610ec09190613012565b905060086000815480929190610ed5906130b2565b9190505550610ee433826117aa565b508080610ef0906130b2565b915050610ea8565b5050565b610f0e610f076111da565b83836117c8565b5050565b610f23610f1d6111da565b83611319565b610f62576040517f08c379a0000000000000000000000000000000000000000000000000000000008152600401610f5990612a06565b60405180910390fd5b610f6e84848484611934565b50505050565b6060610f7f82611990565b610fbe576040517f08c379a0000000000000000000000000000000000000000000000000000000008152600401610fb590613146565b60405180910390fd5b600c610fc9836119d1565b604051602001610fda929190613271565b6040516020818303038152906040529050919050565b60095481565b6000600560008473ffffffffffffffffffffffffffffffffffffffff1673ffffffffffffffffffffffffffffffffffffffff16815260200190815260200160002060008373ffffffffffffffffffffffffffffffffffffffff1673ffffffffffffffffffffffffffffffffffffffff16815260200190815260200160002060009054906101000a900460ff16905092915050565b600e6020528060005260406000206000915090505481565b6110aa61129b565b600073ffffffffffffffffffffffffffffffffffffffff168173ffffffffffffffffffffffffffffffffffffffff1603611119576040517f08c379a000000000000000000000000000000000000000000000000000000000815260040161111090613312565b60405180910390fd5b611122816116e4565b50565b60007f01ffc9a7000000000000000000000000000000000000000000000000000000007bffffffffffffffffffffffffffffffffffffffffffffffffffffffff1916827bffffffffffffffffffffffffffffffffffffffffffffffffffffffff1916149050919050565b61119881611990565b6111d7576040517f08c379a00000000000000000000000000000000000000000000000000000000081526004016111ce90612b24565b60405180910390fd5b50565b600033905090565b816004600083815260200190815260200160002060006101000a81548173ffffffffffffffffffffffffffffffffffffffff021916908373ffffffffffffffffffffffffffffffffffffffff160217905550808273ffffffffffffffffffffffffffffffffffffffff1661125583610acf565b73ffffffffffffffffffffffffffffffffffffffff167f8c5be1e5ebec7d5bd14f71427d1e84f3dd0314c0f7b2291e5b200ac8c7c3b92560405160405180910390a45050565b6112a36111da565b73ffffffffffffffffffffffffffffffffffffffff166112c1610c4c565b73ffffffffffffffffffffffffffffffffffffffff1614611317576040517f08c379a000000000000000000000000000000000000000000000000000000000815260040161130e9061337e565b60405180910390fd5b565b60008061132583610acf565b90508073ffffffffffffffffffffffffffffffffffffffff168473ffffffffffffffffffffffffffffffffffffffff16148061136757506113668185610ff6565b5b806113a557508373ffffffffffffffffffffffffffffffffffffffff1661138d846107e8565b73ffffffffffffffffffffffffffffffffffffffff16145b91505092915050565b8273ffffffffffffffffffffffffffffffffffffffff166113ce82610acf565b73ffffffffffffffffffffffffffffffffffffffff1614611424576040517f08c379a000000000000000000000000000000000000000000000000000000000815260040161141b90613410565b60405180910390fd5b600073ffffffffffffffffffffffffffffffffffffffff168273ffffffffffffffffffffffffffffffffffffffff1603611493576040517f08c379a000000000000000000000000000000000000000000000000000000000815260040161148a906134a2565b60405180910390fd5b6114a08383836001611a9f565b8273ffffffffffffffffffffffffffffffffffffffff166114c082610acf565b73ffffffffffffffffffffffffffffffffffffffff1614611516576040517f08c379a000000000000000000000000000000000000000000000000000000000815260040161150d90613410565b60405180910390fd5b6004600082815260200190815260200160002060006101000a81549073ffffffffffffffffffffffffffffffffffffffff02191690556001600360008573ffffffffffffffffffffffffffffffffffffffff1673ffffffffffffffffffffffffffffffffffffffff168152602001908152602001600020600082825403925050819055506001600360008473ffffffffffffffffffffffffffffffffffffffff1673ffffffffffffffffffffffffffffffffffffffff16815260200190815260200160002060008282540192505081905550816002600083815260200190815260200160002060006101000a81548173ffffffffffffffffffffffffffffffffffffffff021916908373ffffffffffffffffffffffffffffffffffffffff160217905550808273ffffffffffffffffffffffffffffffffffffffff168473ffffffffffffffffffffffffffffffffffffffff167fddf252ad1be2c89b69c2b068fc378daa952ba7f163c4a11628f55a4df523b3ef60405160405180910390a46116a28383836001611bc5565b505050565b60006002600083815260200190815260200160002060009054906101000a900473ffffffffffffffffffffffffffffffffffffffff169050919050565b6000600660009054906101000a900473ffffffffffffffffffffffffffffffffffffffff16905081600660006101000a81548173ffffffffffffffffffffffffffffffffffffffff021916908373ffffffffffffffffffffffffffffffffffffffff1602179055508173ffffffffffffffffffffffffffffffffffffffff168173ffffffffffffffffffffffffffffffffffffffff167f8be0079c531659141344cd1fd0a4f28419497f9722a3daafe3b4186f6b6457e060405160405180910390a35050565b6117c4828260405180602001604052806000815250611bcb565b5050565b8173ffffffffffffffffffffffffffffffffffffffff168373ffffffffffffffffffffffffffffffffffffffff1603611836576040517f08c379a000000000000000000000000000000000000000000000000000000000815260040161182d9061350e565b60405180910390fd5b80600560008573ffffffffffffffffffffffffffffffffffffffff1673ffffffffffffffffffffffffffffffffffffffff16815260200190815260200160002060008473ffffffffffffffffffffffffffffffffffffffff1673ffffffffffffffffffffffffffffffffffffffff16815260200190815260200160002060006101000a81548160ff0219169083151502179055508173ffffffffffffffffffffffffffffffffffffffff168373ffffffffffffffffffffffffffffffffffffffff167f17307eab39ab6107e8899845ad3d59bd9653f200f220920489ca2b5937696c3183604051611927919061215b565b60405180910390a3505050565b61193f8484846113ae565b61194b84848484611c26565b61198a576040517f08c379a0000000000000000000000000000000000000000000000000000000008152600401611981906135a0565b60405180910390fd5b50505050565b60008073ffffffffffffffffffffffffffffffffffffffff166119b2836116a7565b73ffffffffffffffffffffffffffffffffffffffff1614159050919050565b6060600060016119e084611dad565b01905060008167ffffffffffffffff8111156119ff576119fe612622565b5b6040519080825280601f01601f191660200182016040528015611a315781602001600182028036833780820191505090505b509050600082602001820190505b600115611a94578080600190039150507f3031323334353637383961626364656600000000000000000000000000000000600a86061a8153600a8581611a8857611a876135c0565b5b04945060008503611a3f575b819350505050919050565b6001811115611bbf57600073ffffffffffffffffffffffffffffffffffffffff168473ffffffffffffffffffffffffffffffffffffffff1614611b335780600360008673ffffffffffffffffffffffffffffffffffffffff1673ffffffffffffffffffffffffffffffffffffffff1681526020019081526020016000206000828254611b2b91906135ef565b925050819055505b600073ffffffffffffffffffffffffffffffffffffffff168373ffffffffffffffffffffffffffffffffffffffff1614611bbe5780600360008573ffffffffffffffffffffffffffffffffffffffff1673ffffffffffffffffffffffffffffffffffffffff1681526020019081526020016000206000828254611bb69190613012565b925050819055505b5b50505050565b50505050565b611bd58383611f00565b611be26000848484611c26565b611c21576040517f08c379a0000000000000000000000000000000000000000000000000000000008152600401611c18906135a0565b60405180910390fd5b505050565b6000611c478473ffffffffffffffffffffffffffffffffffffffff1661211d565b15611da0578373ffffffffffffffffffffffffffffffffffffffff1663150b7a02611c706111da565b8786866040518563ffffffff1660e01b8152600401611c929493929190613678565b6020604051808303816000875af1925050508015611cce57506040513d601f19601f82011682018060405250810190611ccb91906136d9565b60015b611d50573d8060008114611cfe576040519150601f19603f3d011682016040523d82523d6000602084013e611d03565b606091505b506000815103611d48576040517f08c379a0000000000000000000000000000000000000000000000000000000008152600401611d3f906135a0565b60405180910390fd5b805181602001fd5b63150b7a0260e01b7bffffffffffffffffffffffffffffffffffffffffffffffffffffffff1916817bffffffffffffffffffffffffffffffffffffffffffffffffffffffff191614915050611da5565b600190505b949350505050565b600080600090507a184f03e93ff9f4daa797ed6e38ed64bf6a1f0100000000000000008310611e0b577a184f03e93ff9f4daa797ed6e38ed64bf6a1f0100000000000000008381611e0157611e006135c0565b5b0492506040810190505b6d04ee2d6d415b85acef81000000008310611e48576d04ee2d6d415b85acef81000000008381611e3e57611e3d6135c0565b5b0492506020810190505b662386f26fc100008310611e7757662386f26fc100008381611e6d57611e6c6135c0565b5b0492506010810190505b6305f5e1008310611ea0576305f5e1008381611e9657611e956135c0565b5b0492506008810190505b6127108310611ec5576127108381611ebb57611eba6135c0565b5b0492506004810190505b60648310611ee85760648381611ede57611edd6135c0565b5b0492506002810190505b600a8310611ef7576001810190505b80915050919050565b600073ffffffffffffffffffffffffffffffffffffffff168273ffffffffffffffffffffffffffffffffffffffff1603611f6f576040517f08c379a0000000000000000000000000000000000000000000000000000000008152600401611f6690613752565b60405180910390fd5b611f7881611990565b15611fb8576040517f08c379a0000000000000000000000000000000000000000000000000000000008152600401611faf906137be565b60405180910390fd5b611fc6600083836001611a9f565b611fcf81611990565b1561200f576040517f08c379a0000000000000000000000000000000000000000000000000000000008152600401612006906137be565b60405180910390fd5b6001600360008473ffffffffffffffffffffffffffffffffffffffff1673ffffffffffffffffffffffffffffffffffffffff16815260200190815260200160002060008282540192505081905550816002600083815260200190815260200160002060006101000a81548173ffffffffffffffffffffffffffffffffffffffff021916908373ffffffffffffffffffffffffffffffffffffffff160217905550808273ffffffffffffffffffffffffffffffffffffffff16600073ffffffffffffffffffffffffffffffffffffffff167fddf252ad1be2c89b69c2b068fc378daa952ba7f163c4a11628f55a4df523b3ef60405160405180910390a4612119600083836001611bc5565b5050565b6000808273ffffffffffffffffffffffffffffffffffffffff163b119050919050565b60008115159050919050565b61215581612140565b82525050565b6000602082019050612170600083018461214c565b92915050565b6000604051905090565b600080fd5b600080fd5b60007fffffffff0000000000000000000000000000000000000000000000000000000082169050919050565b6121bf8161218a565b81146121ca57600080fd5b50565b6000813590506121dc816121b6565b92915050565b6000602082840312156121f8576121f7612180565b5b6000612206848285016121cd565b91505092915050565b600081519050919050565b600082825260208201905092915050565b60005b8381101561224957808201518184015260208101905061222e565b60008484015250505050565b6000601f19601f8301169050919050565b60006122718261220f565b61227b818561221a565b935061228b81856020860161222b565b61229481612255565b840191505092915050565b600060208201905081810360008301526122b98184612266565b905092915050565b6000819050919050565b6122d4816122c1565b81146122df57600080fd5b50565b6000813590506122f1816122cb565b92915050565b60006020828403121561230d5761230c612180565b5b600061231b848285016122e2565b91505092915050565b600073ffffffffffffffffffffffffffffffffffffffff82169050919050565b600061234f82612324565b9050919050565b61235f81612344565b82525050565b600060208201905061237a6000830184612356565b92915050565b61238981612344565b811461239457600080fd5b50565b6000813590506123a681612380565b92915050565b600080604083850312156123c3576123c2612180565b5b60006123d185828601612397565b92505060206123e2858286016122e2565b9150509250929050565b6123f5816122c1565b82525050565b600060208201905061241060008301846123ec565b92915050565b61241f81612140565b811461242a57600080fd5b50565b60008135905061243c81612416565b92915050565b60006020828403121561245857612457612180565b5b60006124668482850161242d565b91505092915050565b60008060006060848603121561248857612487612180565b5b600061249686828701612397565b93505060206124a786828701612397565b92505060406124b8868287016122e2565b9150509250925092565b6000602082840312156124d8576124d7612180565b5b60006124e684828501612397565b91505092915050565b60006124fa82612324565b9050919050565b61250a816124ef565b82525050565b60006020820190506125256000830184612501565b92915050565b600080fd5b600080fd5b600080fd5b60008083601f8401126125505761254f61252b565b5b8235905067ffffffffffffffff81111561256d5761256c612530565b5b60208301915083600182028301111561258957612588612535565b5b9250929050565b600080602083850312156125a7576125a6612180565b5b600083013567ffffffffffffffff8111156125c5576125c4612185565b5b6125d18582860161253a565b92509250509250929050565b600080604083850312156125f4576125f3612180565b5b600061260285828601612397565b92505060206126138582860161242d565b9150509250929050565b600080fd5b7f4e487b7100000000000000000000000000000000000000000000000000000000600052604160045260246000fd5b61265a82612255565b810181811067ffffffffffffffff8211171561267957612678612622565b5b80604052505050565b600061268c612176565b90506126988282612651565b919050565b600067ffffffffffffffff8211156126b8576126b7612622565b5b6126c182612255565b9050602081019050919050565b82818337600083830152505050565b60006126f06126eb8461269d565b612682565b90508281526020810184848401111561270c5761270b61261d565b5b6127178482856126ce565b509392505050565b600082601f8301126127345761273361252b565b5b81356127448482602086016126dd565b91505092915050565b6000806000806080858703121561276757612766612180565b5b600061277587828801612397565b945050602061278687828801612397565b9350506040612797878288016122e2565b925050606085013567ffffffffffffffff8111156127b8576127b7612185565b5b6127c48782880161271f565b91505092959194509250565b600080604083850312156127e7576127e6612180565b5b60006127f585828601612397565b925050602061280685828601612397565b9150509250929050565b7f4e487b7100000000000000000000000000000000000000000000000000000000600052602260045260246000fd5b6000600282049050600182168061285757607f821691505b60208210810361286a57612869612810565b5b50919050565b7f4552433732313a20617070726f76616c20746f2063757272656e74206f776e6560008201527f7200000000000000000000000000000000000000000000000000000000000000602082015250565b60006128cc60218361221a565b91506128d782612870565b604082019050919050565b600060208201905081810360008301526128fb816128bf565b9050919050565b7f4552433732313a20617070726f76652063616c6c6572206973206e6f7420746f60008201527f6b656e206f776e6572206f7220617070726f76656420666f7220616c6c000000602082015250565b600061295e603d8361221a565b915061296982612902565b604082019050919050565b6000602082019050818103600083015261298d81612951565b9050919050565b7f4552433732313a2063616c6c6572206973206e6f7420746f6b656e206f776e6560008201527f72206f7220617070726f76656400000000000000000000000000000000000000602082015250565b60006129f0602d8361221a565b91506129fb82612994565b604082019050919050565b60006020820190508181036000830152612a1f816129e3565b9050919050565b600081905092915050565b50565b6000612a41600083612a26565b9150612a4c82612a31565b600082019050919050565b6000612a6282612a34565b9150819050919050565b7f7769746864726177206661696c65640000000000000000000000000000000000600082015250565b6000612aa2600f8361221a565b9150612aad82612a6c565b602082019050919050565b60006020820190508181036000830152612ad181612a95565b9050919050565b7f4552433732313a20696e76616c696420746f6b656e2049440000000000000000600082015250565b6000612b0e60188361221a565b9150612b1982612ad8565b602082019050919050565b60006020820190508181036000830152612b3d81612b01565b9050919050565b7f4552433732313a2061646472657373207a65726f206973206e6f74206120766160008201527f6c6964206f776e65720000000000000000000000000000000000000000000000602082015250565b6000612ba060298361221a565b9150612bab82612b44565b604082019050919050565b60006020820190508181036000830152612bcf81612b93565b9050919050565b600082905092915050565b60008190508160005260206000209050919050565b60006020601f8301049050919050565b600082821b905092915050565b600060088302612c437fffffffffffffffffffffffffffffffffffffffffffffffffffffffffffffffff82612c06565b612c4d8683612c06565b95508019841693508086168417925050509392505050565b6000819050919050565b6000612c8a612c85612c80846122c1565b612c65565b6122c1565b9050919050565b6000819050919050565b612ca483612c6f565b612cb8612cb082612c91565b848454612c13565b825550505050565b600090565b612ccd612cc0565b612cd8818484612c9b565b505050565b5b81811015612cfc57612cf1600082612cc5565b600181019050612cde565b5050565b601f821115612d4157612d1281612be1565b612d1b84612bf6565b81016020851015612d2a578190505b612d3e612d3685612bf6565b830182612cdd565b50505b505050565b600082821c905092915050565b6000612d6460001984600802612d46565b1980831691505092915050565b6000612d7d8383612d53565b9150826002028217905092915050565b612d978383612bd6565b67ffffffffffffffff811115612db057612daf612622565b5b612dba825461283f565b612dc5828285612d00565b6000601f831160018114612df45760008415612de2578287013590505b612dec8582612d71565b865550612e54565b601f198416612e0286612be1565b60005b82811015612e2a57848901358255600182019150602085019450602081019050612e05565b86831015612e475784890135612e43601f891682612d53565b8355505b6001600288020188555050505b50505050505050565b7f6d696e74696e67206e6f7420656e61626c656400000000000000000000000000600082015250565b6000612e9360138361221a565b9150612e9e82612e5d565b602082019050919050565b60006020820190508181036000830152612ec281612e86565b9050919050565b7f4e487b7100000000000000000000000000000000000000000000000000000000600052601160045260246000fd5b6000612f03826122c1565b9150612f0e836122c1565b9250828202612f1c816122c1565b91508282048414831517612f3357612f32612ec9565b5b5092915050565b7f77726f6e67206d696e742076616c756500000000000000000000000000000000600082015250565b6000612f7060108361221a565b9150612f7b82612f3a565b602082019050919050565b60006020820190508181036000830152612f9f81612f63565b9050919050565b7f736f6c64206f7574000000000000000000000000000000000000000000000000600082015250565b6000612fdc60088361221a565b9150612fe782612fa6565b602082019050919050565b6000602082019050818103600083015261300b81612fcf565b9050919050565b600061301d826122c1565b9150613028836122c1565b92508282019050808211156130405761303f612ec9565b5b92915050565b7f657863656564206d61782077616c6c6574000000000000000000000000000000600082015250565b600061307c60118361221a565b915061308782613046565b602082019050919050565b600060208201905081810360008301526130ab8161306f565b9050919050565b60006130bd826122c1565b91507fffffffffffffffffffffffffffffffffffffffffffffffffffffffffffffffff82036130ef576130ee612ec9565b5b600182019050919050565b7f546f6b656e20646f6573206e6f74206578697374210000000000000000000000600082015250565b600061313060158361221a565b915061313b826130fa565b602082019050919050565b6000602082019050818103600083015261315f81613123565b9050919050565b600081905092915050565b6000815461317e8161283f565b6131888186613166565b945060018216600081146131a357600181146131b8576131eb565b60ff19831686528115158202860193506131eb565b6131c185612be1565b60005b838110156131e3578154818901526001820191506020810190506131c4565b838801955050505b50505092915050565b60006131ff8261220f565b6132098185613166565b935061321981856020860161222b565b80840191505092915050565b7f2e6a736f6e000000000000000000000000000000000000000000000000000000600082015250565b600061325b600583613166565b915061326682613225565b600582019050919050565b600061327d8285613171565b915061328982846131f4565b91506132948261324e565b91508190509392505050565b7f4f776e61626c653a206e6577206f776e657220697320746865207a65726f206160008201527f6464726573730000000000000000000000000000000000000000000000000000602082015250565b60006132fc60268361221a565b9150613307826132a0565b604082019050919050565b6000602082019050818103600083015261332b816132ef565b9050919050565b7f4f776e61626c653a2063616c6c6572206973206e6f7420746865206f776e6572600082015250565b600061336860208361221a565b915061337382613332565b602082019050919050565b600060208201905081810360008301526133978161335b565b9050919050565b7f4552433732313a207472616e736665722066726f6d20696e636f72726563742060008201527f6f776e6572000000000000000000000000000000000000000000000000000000602082015250565b60006133fa60258361221a565b91506134058261339e565b604082019050919050565b60006020820190508181036000830152613429816133ed565b9050919050565b7f4552433732313a207472616e7366657220746f20746865207a65726f2061646460008201527f7265737300000000000000000000000000000000000000000000000000000000602082015250565b600061348c60248361221a565b915061349782613430565b604082019050919050565b600060208201905081810360008301526134bb8161347f565b9050919050565b7f4552433732313a20617070726f766520746f2063616c6c657200000000000000600082015250565b60006134f860198361221a565b9150613503826134c2565b602082019050919050565b60006020820190508181036000830152613527816134eb565b9050919050565b7f4552433732313a207472616e7366657220746f206e6f6e20455243373231526560008201527f63656976657220696d706c656d656e7465720000000000000000000000000000602082015250565b600061358a60328361221a565b91506135958261352e565b604082019050919050565b600060208201905081810360008301526135b98161357d565b9050919050565b7f4e487b7100000000000000000000000000000000000000000000000000000000600052601260045260246000fd5b60006135fa826122c1565b9150613605836122c1565b925082820390508181111561361d5761361c612ec9565b5b92915050565b600081519050919050565b600082825260208201905092915050565b600061364a82613623565b613654818561362e565b935061366481856020860161222b565b61366d81612255565b840191505092915050565b600060808201905061368d6000830187612356565b61369a6020830186612356565b6136a760408301856123ec565b81810360608301526136b9818461363f565b905095945050505050565b6000815190506136d3816121b6565b92915050565b6000602082840312156136ef576136ee612180565b5b60006136fd848285016136c4565b91505092915050565b7f4552433732313a206d696e7420746f20746865207a65726f2061646472657373600082015250565b600061373c60208361221a565b915061374782613706565b602082019050919050565b6000602082019050818103600083015261376b8161372f565b9050919050565b7f4552433732313a20746f6b656e20616c7265616479206d696e74656400000000600082015250565b60006137a8601c8361221a565b91506137b382613772565b602082019050919050565b600060208201905081810360008301526137d78161379b565b905091905056fea264697066735822122056f7d0a423f6d14bb2ffc34964f8c70dab066ee50313fa7e1855f1fe24dfb18864736f6c63430008110033",
    "linkReferences": {},
    "deployedLinkReferences": {}
}